{
  "contractName": "TweetStorage",
  "abi": [
    {
      "constant": true,
      "inputs": [
        {
          "name": "",
          "type": "uint256"
        }
      ],
      "name": "tweetIds",
      "outputs": [
        {
          "name": "",
          "type": "uint256"
        }
      ],
      "payable": false,
      "stateMutability": "view",
      "type": "function"
    },
    {
      "constant": false,
      "inputs": [
        {
          "name": "_controllerAddr",
          "type": "address"
        }
      ],
      "name": "setControllerAddr",
      "outputs": [],
      "payable": false,
      "stateMutability": "nonpayable",
      "type": "function"
    },
    {
      "constant": true,
      "inputs": [],
      "name": "ownerAddr",
      "outputs": [
        {
          "name": "",
          "type": "address"
        }
      ],
      "payable": false,
      "stateMutability": "view",
      "type": "function"
    },
    {
      "constant": true,
      "inputs": [
        {
          "name": "",
          "type": "uint256"
        }
      ],
      "name": "tweets",
      "outputs": [
        {
          "name": "id",
          "type": "uint256"
        },
        {
          "name": "text",
          "type": "string"
        },
        {
          "name": "userId",
          "type": "uint256"
        },
        {
          "name": "postedAt",
          "type": "uint256"
        }
      ],
      "payable": false,
      "stateMutability": "view",
      "type": "function"
    },
    {
      "constant": true,
      "inputs": [],
      "name": "controllerAddr",
      "outputs": [
        {
          "name": "",
          "type": "address"
        }
      ],
      "payable": false,
      "stateMutability": "view",
      "type": "function"
    },
    {
      "constant": false,
      "inputs": [
        {
          "name": "_newOwner",
          "type": "address"
        }
      ],
      "name": "transferOwnership",
      "outputs": [],
      "payable": false,
      "stateMutability": "nonpayable",
      "type": "function"
    },
    {
      "constant": false,
      "inputs": [
        {
          "name": "_userId",
          "type": "uint256"
        },
        {
          "name": "_text",
          "type": "string"
        }
      ],
      "name": "createTweet",
      "outputs": [
        {
          "name": "",
          "type": "uint256"
        }
      ],
      "payable": false,
      "stateMutability": "nonpayable",
      "type": "function"
    },
    {
      "constant": true,
      "inputs": [],
      "name": "getNumTweets",
      "outputs": [
        {
          "name": "_numTweets",
          "type": "uint256"
        }
      ],
      "payable": false,
      "stateMutability": "view",
      "type": "function"
    },
    {
      "constant": true,
      "inputs": [
        {
          "name": "_userId",
          "type": "uint256"
        }
      ],
      "name": "getTweetIdsFromUser",
      "outputs": [
        {
          "name": "",
          "type": "uint256[]"
        }
      ],
      "payable": false,
      "stateMutability": "view",
      "type": "function"
    }
  ],
  "bytecode": "0x60806040526000600555336000806101000a81548173ffffffffffffffffffffffffffffffffffffffff021916908373ffffffffffffffffffffffffffffffffffffffff160217905550610981806100586000396000f3fe608060405234801561001057600080fd5b50600436106100935760003560e01c80639c675eaa116100665780639c675eaa1461027a578063e8d857b0146102c4578063eb4fdc3f14610380578063ee255c571461039e578063f2fde38b146103e857610093565b806317edf66d14610098578063317aae1b146100da5780636981fa7d1461015d5780637cc82f20146101a1575b600080fd5b6100c4600480360360208110156100ae57600080fd5b810190808035906020019092919050505061042c565b6040518082815260200191505060405180910390f35b610106600480360360208110156100f057600080fd5b810190808035906020019092919050505061044d565b6040518080602001828103825283818151815260200191508051906020019060200280838360005b8381101561014957808201518184015260208101905061012e565b505050509050019250505060405180910390f35b61019f6004803603602081101561017357600080fd5b81019080803573ffffffffffffffffffffffffffffffffffffffff1690602001909291905050506104b8565b005b610264600480360360408110156101b757600080fd5b8101908080359060200190929190803590602001906401000000008111156101de57600080fd5b8201836020820111156101f057600080fd5b8035906020019184600183028401116401000000008311171561021257600080fd5b91908080601f016020809104026020016040519081016040528093929190818152602001838380828437600081840152601f19601f820116905080830192505050505050509192919290505050610555565b6040518082815260200191505060405180910390f35b6102826106b1565b604051808273ffffffffffffffffffffffffffffffffffffffff1673ffffffffffffffffffffffffffffffffffffffff16815260200191505060405180910390f35b6102f0600480360360208110156102da57600080fd5b81019080803590602001909291905050506106d6565b6040518085815260200180602001848152602001838152602001828103825285818151815260200191508051906020019080838360005b83811015610342578082015181840152602081019050610327565b50505050905090810190601f16801561036f5780820380516001836020036101000a031916815260200191505b509550505050505060405180910390f35b61038861079e565b6040518082815260200191505060405180910390f35b6103a66107ab565b604051808273ffffffffffffffffffffffffffffffffffffffff1673ffffffffffffffffffffffffffffffffffffffff16815260200191505060405180910390f35b61042a600480360360208110156103fe57600080fd5b81019080803573ffffffffffffffffffffffffffffffffffffffff1690602001909291905050506107d1565b005b6004818154811061043957fe5b906000526020600020016000915090505481565b6060600360008381526020019081526020016000208054806020026020016040519081016040528092919081815260200182805480156104ac57602002820191906000526020600020905b815481526020019060010190808311610498575b50505050509050919050565b6000809054906101000a900473ffffffffffffffffffffffffffffffffffffffff1673ffffffffffffffffffffffffffffffffffffffff163373ffffffffffffffffffffffffffffffffffffffff161461051157600080fd5b80600160006101000a81548173ffffffffffffffffffffffffffffffffffffffff021916908373ffffffffffffffffffffffffffffffffffffffff16021790555050565b6000600160009054906101000a900473ffffffffffffffffffffffffffffffffffffffff1673ffffffffffffffffffffffffffffffffffffffff163373ffffffffffffffffffffffffffffffffffffffff16146105b157600080fd5b60056000815480929190600101919050555060405180608001604052806005548152602001838152602001848152602001428152506002600060055481526020019081526020016000206000820151816000015560208201518160010190805190602001906106219291906108a7565b50604082015181600201556060820151816003015590505060036000848152602001908152602001600020600554908060018154018082558091505090600182039060005260206000200160009091929091909150555060046005549080600181540180825580915050906001820390600052602060002001600090919290919091505550600554905092915050565b6000809054906101000a900473ffffffffffffffffffffffffffffffffffffffff1681565b6002602052806000526040600020600091509050806000015490806001018054600181600116156101000203166002900480601f0160208091040260200160405190810160405280929190818152602001828054600181600116156101000203166002900480156107885780601f1061075d57610100808354040283529160200191610788565b820191906000526020600020905b81548152906001019060200180831161076b57829003601f168201915b5050505050908060020154908060030154905084565b6000600480549050905090565b600160009054906101000a900473ffffffffffffffffffffffffffffffffffffffff1681565b6000809054906101000a900473ffffffffffffffffffffffffffffffffffffffff1673ffffffffffffffffffffffffffffffffffffffff163373ffffffffffffffffffffffffffffffffffffffff161461082a57600080fd5b600073ffffffffffffffffffffffffffffffffffffffff168173ffffffffffffffffffffffffffffffffffffffff16141561086457600080fd5b806000806101000a81548173ffffffffffffffffffffffffffffffffffffffff021916908373ffffffffffffffffffffffffffffffffffffffff16021790555050565b828054600181600116156101000203166002900490600052602060002090601f016020900481019282601f106108e857805160ff1916838001178555610916565b82800160010185558215610916579182015b828111156109155782518255916020019190600101906108fa565b5b5090506109239190610927565b5090565b61094991905b8082111561094557600081600090555060010161092d565b5090565b9056fea265627a7a723058200bc5084f09085b3e61179e8dd6c7d23913c567b8c28d2f72988f5acae151733364736f6c634300050a0032",
  "source": "pragma solidity ^0.5.10;\n\nimport '../helpers/BaseStorage.sol';\n\ncontract TweetStorage is BaseStorage {\n\n  mapping(uint => Tweet) public tweets;\n  mapping (uint => uint[]) userTweetIds;\n  uint[] public tweetIds;\n\n  struct Tweet {\n    uint id;\n    string text;\n    uint userId;\n    uint postedAt;\n  }\n\n  uint latestTweetId = 0;\n\n  function createTweet(uint _userId, string memory _text) public onlyController returns(uint) {\n    latestTweetId++;\n\n    tweets[latestTweetId] = Tweet(latestTweetId, _text, _userId, now);\n    userTweetIds[_userId].push(latestTweetId);\n    tweetIds.push(latestTweetId);\n\n    return latestTweetId;\n  }\n\n  function getNumTweets() view public returns(uint _numTweets) {\n    return tweetIds.length;\n  }\n\n  function getTweetIdsFromUser(uint _userId) view public returns(uint[] memory) {\n    return userTweetIds[_userId];\n  }\n\n}\n",
  "sourcePath": "/home/horsecat/Documents/solidity/ludu/tweether/contracts/tweets/TweetStorage.sol",
  "compiler": {
    "name": "solc",
    "version": "0.5.10+commit.5a6ea5b1.Emscripten.clang"
  },
  "schemaVersion": "3.2.5",
  "updatedAt": "2020-10-07T23:10:58.344Z",
  "networkType": "ethereum",
  "devdoc": {
    "methods": {}
  },
  "userdoc": {
    "methods": {}
  }
}