{
  "contractName": "UserStorage",
  "abi": [
    {
      "constant": false,
      "inputs": [
        {
          "name": "_controllerAddr",
          "type": "address"
        }
      ],
      "name": "setControllerAddr",
      "outputs": [],
      "payable": false,
      "stateMutability": "nonpayable",
      "type": "function"
    },
    {
      "constant": true,
      "inputs": [
        {
          "name": "",
          "type": "address"
        }
      ],
      "name": "addresses",
      "outputs": [
        {
          "name": "",
          "type": "uint256"
        }
      ],
      "payable": false,
      "stateMutability": "view",
      "type": "function"
    },
    {
      "constant": true,
      "inputs": [],
      "name": "ownerAddr",
      "outputs": [
        {
          "name": "",
          "type": "address"
        }
      ],
      "payable": false,
      "stateMutability": "view",
      "type": "function"
    },
    {
      "constant": true,
      "inputs": [
        {
          "name": "",
          "type": "uint256"
        }
      ],
      "name": "profiles",
      "outputs": [
        {
          "name": "id",
          "type": "uint256"
        },
        {
          "name": "username",
          "type": "bytes32"
        },
        {
          "name": "firstName",
          "type": "bytes32"
        },
        {
          "name": "lastName",
          "type": "bytes32"
        },
        {
          "name": "bio",
          "type": "string"
        },
        {
          "name": "gravatarEmail",
          "type": "string"
        }
      ],
      "payable": false,
      "stateMutability": "view",
      "type": "function"
    },
    {
      "constant": true,
      "inputs": [
        {
          "name": "",
          "type": "bytes32"
        }
      ],
      "name": "usernames",
      "outputs": [
        {
          "name": "",
          "type": "uint256"
        }
      ],
      "payable": false,
      "stateMutability": "view",
      "type": "function"
    },
    {
      "constant": true,
      "inputs": [],
      "name": "controllerAddr",
      "outputs": [
        {
          "name": "",
          "type": "address"
        }
      ],
      "payable": false,
      "stateMutability": "view",
      "type": "function"
    },
    {
      "constant": false,
      "inputs": [
        {
          "name": "_newOwner",
          "type": "address"
        }
      ],
      "name": "transferOwnership",
      "outputs": [],
      "payable": false,
      "stateMutability": "nonpayable",
      "type": "function"
    },
    {
      "constant": false,
      "inputs": [
        {
          "name": "_address",
          "type": "address"
        },
        {
          "name": "_username",
          "type": "bytes32"
        },
        {
          "name": "_firstName",
          "type": "bytes32"
        },
        {
          "name": "_lastName",
          "type": "bytes32"
        },
        {
          "name": "_bio",
          "type": "string"
        },
        {
          "name": "_gravatarEmail",
          "type": "string"
        }
      ],
      "name": "createUser",
      "outputs": [
        {
          "name": "",
          "type": "uint256"
        }
      ],
      "payable": false,
      "stateMutability": "nonpayable",
      "type": "function"
    }
  ],
  "bytecode": "0x60806040526000600555336000806101000a81548173ffffffffffffffffffffffffffffffffffffffff021916908373ffffffffffffffffffffffffffffffffffffffff160217905550610a96806100586000396000f30060806040526004361061008e576000357c0100000000000000000000000000000000000000000000000000000000900463ffffffff1680636981fa7d1461009357806382d38954146100d65780639c675eaa1461012d578063c36fe3d614610184578063d399e63d146102ca578063ec4d88d7146103d7578063ee255c571461041c578063f2fde38b14610473575b600080fd5b34801561009f57600080fd5b506100d4600480360381019080803573ffffffffffffffffffffffffffffffffffffffff1690602001909291905050506104b6565b005b3480156100e257600080fd5b50610117600480360381019080803573ffffffffffffffffffffffffffffffffffffffff169060200190929190505050610555565b6040518082815260200191505060405180910390f35b34801561013957600080fd5b5061014261056d565b604051808273ffffffffffffffffffffffffffffffffffffffff1673ffffffffffffffffffffffffffffffffffffffff16815260200191505060405180910390f35b34801561019057600080fd5b506101af60048036038101908080359060200190929190505050610592565b604051808781526020018660001916600019168152602001856000191660001916815260200184600019166000191681526020018060200180602001838103835285818151815260200191508051906020019080838360005b83811015610223578082015181840152602081019050610208565b50505050905090810190601f1680156102505780820380516001836020036101000a031916815260200191505b50838103825284818151815260200191508051906020019080838360005b8381101561028957808201518184015260208101905061026e565b50505050905090810190601f1680156102b65780820380516001836020036101000a031916815260200191505b509850505050505050505060405180910390f35b3480156102d657600080fd5b506103c1600480360381019080803573ffffffffffffffffffffffffffffffffffffffff169060200190929190803560001916906020019092919080356000191690602001909291908035600019169060200190929190803590602001908201803590602001908080601f0160208091040260200160405190810160405280939291908181526020018383808284378201915050505050509192919290803590602001908201803590602001908080601f01602080910402602001604051908101604052809392919081815260200183838082843782019150505050505091929192905050506106fe565b6040518082815260200191505060405180910390f35b3480156103e357600080fd5b5061040660048036038101908080356000191690602001909291905050506108ad565b6040518082815260200191505060405180910390f35b34801561042857600080fd5b506104316108c5565b604051808273ffffffffffffffffffffffffffffffffffffffff1673ffffffffffffffffffffffffffffffffffffffff16815260200191505060405180910390f35b34801561047f57600080fd5b506104b4600480360381019080803573ffffffffffffffffffffffffffffffffffffffff1690602001909291905050506108eb565b005b6000809054906101000a900473ffffffffffffffffffffffffffffffffffffffff1673ffffffffffffffffffffffffffffffffffffffff163373ffffffffffffffffffffffffffffffffffffffff1614151561051157600080fd5b80600160006101000a81548173ffffffffffffffffffffffffffffffffffffffff021916908373ffffffffffffffffffffffffffffffffffffffff16021790555050565b60036020528060005260406000206000915090505481565b6000809054906101000a900473ffffffffffffffffffffffffffffffffffffffff1681565b6002602052806000526040600020600091509050806000015490806001015490806002015490806003015490806004018054600181600116156101000203166002900480601f0160208091040260200160405190810160405280929190818152602001828054600181600116156101000203166002900480156106565780601f1061062b57610100808354040283529160200191610656565b820191906000526020600020905b81548152906001019060200180831161063957829003601f168201915b505050505090806005018054600181600116156101000203166002900480601f0160208091040260200160405190810160405280929190818152602001828054600181600116156101000203166002900480156106f45780601f106106c9576101008083540402835291602001916106f4565b820191906000526020600020905b8154815290600101906020018083116106d757829003601f168201915b5050505050905086565b6000600160009054906101000a900473ffffffffffffffffffffffffffffffffffffffff1673ffffffffffffffffffffffffffffffffffffffff163373ffffffffffffffffffffffffffffffffffffffff1614151561075c57600080fd5b60056000815480929190600101919050555060c0604051908101604052806005548152602001876000191681526020018660001916815260200185600019168152602001848152602001838152506002600060055481526020019081526020016000206000820151816000015560208201518160010190600019169055604082015181600201906000191690556060820151816003019060001916905560808201518160040190805190602001906108159291906109c5565b5060a08201518160050190805190602001906108329291906109c5565b50905050600554600360008973ffffffffffffffffffffffffffffffffffffffff1673ffffffffffffffffffffffffffffffffffffffff168152602001908152602001600020819055506005546004600088600019166000191681526020019081526020016000208190555060055490509695505050505050565b60046020528060005260406000206000915090505481565b600160009054906101000a900473ffffffffffffffffffffffffffffffffffffffff1681565b6000809054906101000a900473ffffffffffffffffffffffffffffffffffffffff1673ffffffffffffffffffffffffffffffffffffffff163373ffffffffffffffffffffffffffffffffffffffff1614151561094657600080fd5b600073ffffffffffffffffffffffffffffffffffffffff168173ffffffffffffffffffffffffffffffffffffffff161415151561098257600080fd5b806000806101000a81548173ffffffffffffffffffffffffffffffffffffffff021916908373ffffffffffffffffffffffffffffffffffffffff16021790555050565b828054600181600116156101000203166002900490600052602060002090601f016020900481019282601f10610a0657805160ff1916838001178555610a34565b82800160010185558215610a34579182015b82811115610a33578251825591602001919060010190610a18565b5b509050610a419190610a45565b5090565b610a6791905b80821115610a63576000816000905550600101610a4b565b5090565b905600a165627a7a72305820ae0fb12a33be2b5d0528349e4c677677c793e02d3ee92eb77d8f7c81ff871ac30029",
  "source": "pragma solidity >=0.4.24 <0.5.10;\n\nimport '../helpers/BaseStorage.sol';\n\ncontract UserStorage is BaseStorage {\n\n  mapping(uint => Profile) public profiles;\n  mapping (address => uint) public addresses;\n  mapping (bytes32 => uint) public usernames;\n\n  struct Profile {\n    uint id;\n    bytes32 username;\n    bytes32 firstName;\n    bytes32 lastName;\n    string bio;\n    string gravatarEmail;\n  }\n\n  uint latestUserId = 0;\n\n  function createUser(\n    address _address,\n    bytes32 _username,\n    bytes32 _firstName,\n    bytes32 _lastName,\n    string memory _bio,\n    string memory _gravatarEmail\n  ) public onlyController returns(uint) {\n    latestUserId++;\n\n    profiles[latestUserId] = Profile(\n      latestUserId,\n      _username,\n      _firstName,\n      _lastName,\n      _bio,\n      _gravatarEmail\n    );\n\n    addresses[_address] = latestUserId;\n    usernames[_username] = latestUserId;\n\n    return latestUserId;\n  }\n\n}\n",
  "sourcePath": "/home/horsecat/Documents/solidity/ludu/tweether/contracts/users/UserStorage.sol",
  "compiler": {
    "name": "solc",
    "version": "0.4.24+commit.e67f0147.Emscripten.clang"
  },
  "schemaVersion": "3.2.5",
  "updatedAt": "2020-10-08T18:41:47.664Z",
  "networkType": "ethereum",
  "devdoc": {
    "methods": {}
  },
  "userdoc": {
    "methods": {}
  }
}